:020000022000DC
:10700000402A0020F98B0200E9E80200E58B02002B
:10701000E58B0200E58B0200E58B0200000000001A
:10702000000000000000000000000000E98C0200E9
:10703000E58B020000000000858C0200E58B020059
:10704000D58E0200D58E0200D58E0200D58E0200AC
:10705000D58E0200D58E0200D58E0200D58E02009C
:10706000D58E0200D58E0200D58E0200D58E02008C
:10707000D58E0200D58E0200D58E0200D58E02007C
:10708000D58E0200D58E0200D58E0200D58E02006C
:10709000D58E0200D58E0200D58E0200D58E02005C
:1070A000D58E0200D58E0200D58E0200D58E02004C
:1070B000D58E0200D58E0200D58E0200D58E02003C
:1070C000D58E0200D58E0200D58E0200D58E02002C
:1070D000D58E0200D58E0200D58E0200D58E02001C
:1070E000D58E0200D58E0200D58E0200D58E02000C
:1070F000D58E0200D58E0200D58E0200D58E0200FC
:1071000053B94AB9002908BF00281CBF4FF0FF310E
:107110004FF0FF3000F00CB8ADF1080C6DE904CE73
:1071200000F008F8DDF804E0DDE9022304B0704760
:10713000704700BF2DE9F04786468C460846089EFA
:10714000154674461946002B40F0C2808542B2FABB
:1071500082F245D94AB1C2F1200300FA02FC2EFAAC
:1071600003F3954043EA0C0C94404FEA154EA8B245
:10717000BCFBFEF8230C0EFB18CC08FB00F943EA1D
:107180000C43994528D9EB1808F1FF3704D29945EB
:1071900002D9A8F102072B44A3EB0903A4B2B3FB65
:1071A000FEFC0EFB1C330CFB00F044EA0344A0423F
:1071B00014D92C190CF1FF3304D2A04202D9ACF13E
:1071C00002032C44241A43EA07401EB1D440002392
:1071D00034607360BDE8F0874746DDE76346F1E75A
:1071E00092BB431B01214FEA154EAFB2B3FBFEFC2D
:1071F000200C0EFB1C330CFB07F840EA03439845B8
:1072000062D9EB180CF1FF3004D2984502D9ACF1E9
:1072100002002B44A3EB0803A4B2B3FBFEFC0EFB5D
:107220001C330CFB07F744EA0344A7424ED92C1940
:107230000CF1FF3304D2A74202D9ACF102032C4473
:10724000E41B43EA0040C0E7C2F1200320FA03F147
:10725000954090402EFA03F303434FEA154EAFB228
:10726000B1FBFEFC0EFB1C10190C0CFB07F841EAED
:107270000041884504FA02F422D969180CF1FF3064
:1072800004D2884502D9ACF102002944A1EB0801DF
:107290009BB2B1FBFEFC0EFB1C110CFB07F743EA93
:1072A00001439F420ED9EB180CF1FF3104D29F42EB
:1072B00002D9ACF102012B44DB1B41EA004192E709
:1072C0006046E3E76146F7E76046A3E76346B7E752
:1072D000834206D916B9002108467BE7C6E900E0DB
:1072E000F9E7B3FA83F78FB9834201D3724508D81F
:1072F000BEEB020460EB030301209C461EB9002193
:1073000068E73846FAE7C6E9004CF8E7C7F1200C11
:10731000BB4022FA0CF41C432EFA0CF120FA0CF3B9
:10732000B84001434FEA14490EFA07F5B3FBF9F8E8
:107330001FFA84FE09FB18300B0C08FB0EFA43EA17
:1073400000439A4502FA07F240D9E31808F1FF30EA
:1073500004D29A4502D9A8F102002344A3EB0A0300
:1073600089B2B3FBF9F809FB183308FB0EFE41EABA
:1073700003418E452CD9611808F1FF3304D28E45A4
:1073800002D9A8F10203214443EA0040A0FB02987D
:10739000A1EB0E014145CE46434602D306D14D45F1
:1073A00004D2B9EB020E68EB04030138002EA6D01C
:1073B000B5EB0E0261EB030101FA0CFC22FA07F3B4
:1073C0004CEA0303F940C6E9003198E74046C5E7B7
:1073D0004346D9E7034613F8012B002AFBD1181ABC
:1073E00001387047F8B5174D284607F07BFF044673
:1073F00030B32A69A968136843F0806313600B688F
:10740000114A1A2128469847002819DB0F4F104EC1
:10741000AB684FF080615B692846984700280FDB16
:1074200084F0010414F0FF0414BF394631460948C2
:1074300006F060FB00214FF4004005F0C3FEE7E7D3
:107440000020F8BD44FB02000100060030FF0200EE
:1074500033FF020037FF0200014B1B68184700BFD3
:10746000B000002030B585B004460D461022002142
:10747000684608F000FB02238DF802302A46044BD0
:1074800001932146684606F047FB05B030BD00BFBA
:1074900059740200014B1860704700BFB000002013
:1074A00080B505460E461746984605F0C7FE0346CA
:1074B00008F0EAFADFF81890044649F8003042462E
:1074C00030463946A84754F8090001F0ADFB00BF2B
:1074D000080000002DE9F047058B04462807904678
:1074E00011D4022905F0070540F0CD80204606F0B2
:1074F00065FF78B10138218B042811D8DFE800F04E
:10750000C3106D85950001290CBF45F0100545F0AD
:107510002005258388F31188BFF36F8FBDE8F087BE
:1075200001F0070AAA4500F0A6800027B9463E46AA
:10753000A368002B00F0BD8041F00801218388F38F
:107540001188BFF36F8FA168002900F0BB800D6820
:10755000002900F0B780D1F8048033465246204617
:10756000C047002D76D02B6829461D46F0E701F074
:1075700007035A1F012A1BD8002221F00701062BFE
:10758000276889B2C4E9002209D13B4603E0628B37
:10759000013262831B68002BF9D141F00201218383
:1075A000204606F00BFF00287BD041F0200177E059
:1075B000042B0AD121F0070189B22183204606F06D
:1075C000FDFE10B141F020012183218B01F0070A5B
:1075D000AA4550D00027B946AAE7236921F0070140
:1075E00041F00601062DD3F8009021832DD1B9F189
:1075F000000F40D041F00801218388F31188BFF3C8
:107600006F8F3A492046C84729E021F007012369D6
:1076100041F0040189B2042DD3F804902183E6D00F
:1076200000273E464FF0040A82E721F00701236954
:1076300041F0050189B2052DD3F808902183D6D0F9
:1076400000273E464FF0050A72E700273E464FF0FE
:10765000060A6DE72B4687E7B9F1000FD1D14FF04D
:107660002003EFF3118883F31288BFF36F8F238B0E
:1076700023F008032383258BEA062ED525F010037B
:10768000238305F007056669218B002EBFF66FAFD7
:1076900000232768C4E9003321F0070141F001010C
:1076A0002183218B01F0070AAA454FF000097FF4DE
:1076B0003FAF002F9BD041F00801218388F3118850
:1076C000BFF36F8F002FC7D03D683946334652460F
:1076D000204606F09FFE2F46F4E7AB067FF51AAF73
:1076E00025F02003238305F00705FFE641E40200AF
:1076F000014B03600020704738FD0200F0B40C4BD2
:107700000C4E5F6A0C4BB34203D36FF08500F0BCA4
:1077100070475D68BD4209D31C693CB195F802C051
:107720000579AC4502D12346F0BC18472433EAE77B
:107730002806002004030020E00200202DE9F04785
:10774000134CDFF85080DFF8509005460E46174680
:10775000444503D36FF08500BDE8F0876268D9F82F
:1077600024309A4212D3A36983B190782979884250
:1077700005D13A4631462846BDE8F04718475279C8
:10778000012A03D13A463146284698472434DFE798
:10779000E002002004030020280600202DE9F0412B
:1077A0000B4CDFF8308005460E461746444502D3A1
:1077B0006FF0850009E063690BB92434F6E73A46B7
:1077C0003146284698470028F7D1BDE8F08100BF30
:1077D000E00200200403002010B5044607F0D0F8B2
:1077E00010F1780F00D050B9054A204606F0A9FFE5
:1077F000D2F8C43023EA0003C2F8C430002010BD20
:1078000028060020024B00221A605A60704700BF11
:10781000E306002070B50B4B0B4CA34201D30020B4
:1078200070BD196A1E7F00220439D5B2AE4201D85C
:107830002433F2E7013211F832508542F5D10120AC
:10784000EEE700BFE00200200403002008B509486D
:107850000378C3F341130A3350F823303BB100F1EE
:10786000080200F110019847C043C00F08BD184638
:10787000FCE700BF2806002004282DE9F14FDFF8BF
:10788000989004460F4616D001282DD1DFF88C8041
:1078900098F8B93043B300F007FE214D4D4520D292
:1078A000D5F820B04FF0000A2B7F5FFA8AF6B3427A
:1078B00004D82435F2E7FFF7A5FFE7E70BEBC60690
:1078C0000AF1010A307907F05BF80246307906F0D8
:1078D00038FFD8F8C430002A23EA0003C8F8C430BF
:1078E000E2DA002388F8B9300D4D4D4508D30B4B33
:1078F0001B6A6BB13946204601B0BDE8F04F18470E
:10790000EB681BB13A462146284698472435ECE7F8
:1079100001B0BDE8F08F00BF04030020280600205E
:10792000E002002073B5C4B263060D468DF807402F
:1079300007D02046FFF76EFF78B10D4B93F8BA00E1
:1079400058B10B4E204655B102F054F8F3691BB103
:107950000DF1070108209847012002B070BD02F028
:1079600071F8F369002BF7D00DF107010920F2E758
:107970002806002073B586788DF800600379427977
:107980001C4C43EA0223ADF80230C378304603F0C2
:1079900003038DF8043006F0D4FED4F8C430184246
:1079A00005460BD0304600F061FD3046FFF714FF6E
:1079B00007F0EFFC10B9962005F022FC684601F0B4
:1079C000F5FF10F1780F03D010B1002002B070BDA8
:1079D0009DF8000002F072F810F1780F01D0002835
:1079E000F3D1D4F8C43001202B4384F8B900C4F893
:1079F000C430EBE7280600202DE9F047A34EB36919
:107A000004460F461546FBB9237803F01F03012BEC
:107A100000F09D80022B00F0048133BB94F900003C
:107A20002A686178002834DA062912D008292BD078
:107A3000D9B901231370517096F8C3305B0043F03D
:107A40000103137002232AE198470028DCD10020AB
:107A50000DE06288100A011F0129844605D9072814
:107A600003D8716AD2B20C781CB96FF01500BDE86A
:107A7000F0874E78664503D19A4200F00B810133BE
:107A80002144F0E70B780AE196F8BA30137001232D
:107A900005E101390829E8D801A353F821F000BF16
:107AA000397B02006B7A0200477B02006B7A02008E
:107AB000C57A02006B7A02006B7A02006B7A0200D0
:107AC000D17A0200A07801F05FFF0028BFD0CCE798
:107AD0006388756A63BBFFF795FE638886F8BA30E2
:107AE000F369002BB3D06A4903209847AFE76B785E
:107AF000042B10D0052B11D0022B04D16F79638891
:107B0000BB4208BF01202B781D442B78002BEED1FF
:107B10000028AAD0DFE795F80380F4E76388BB422A
:107B2000F1D1B8F1000FEED12846FFF723FFEAE7C5
:107B3000FF270020B846E8E76388012B95D1002392
:107B400086F8C33083E76388012B8ED1F8E796F877
:107B5000BA30D5F800C0002B87D0756AA38894F896
:107B600004E02A46107800283FF47FAF51780229BC
:107B700004D192F80480F04500F293800244F1E7CA
:107B80008CF800208CF80120396060E7154494E0FF
:107B90000B2A7FF46AAF00274FF0FF08C146BA46B0
:107BA00006E06B78042B0FD0052B21D02B781D44D9
:107BB0002B78002BF5D1F36913B151460720984774
:107BC000002F7FF444AF50E795F80280A38895F822
:107BD00003909845EAD163889945E7D1B8F1070F3A
:107BE0001CD806EB0803AA4683F8BB900127DDE703
:107BF000A3884345DAD1A3784B450AD0AF783846FD
:107C000000F034FC3846FFF7E7FDB0FA80F77F0953
:107C1000CCE72846FFF7AEFE0746C7E7AA4600278F
:107C2000C4E794F900206378002A18DA002B7FF467
:107C30001CAF24792D6863060AD02046FFF7EAFDC1
:107C400000283FF412AF96F8BA30002B3FF40DAF86
:107C50002946204601F016FF00236B70F2E6012B47
:107C600008D0032B7FF401AF6388002B7FF4FDAEB7
:107C7000012103E0618800297FF4F7AEA088FFF7B7
:107C800051FE00287FF4E3AEEFE600BF2806002097
:107C9000E2060020022829607FF4F4AE4B883B60A6
:107CA000D5E694F9000062780028BFF671AF002A8B
:107CB0003FF466AF0A2A7FF4D8AE2A78002A3FF450
:107CC000D4AE697804297FF461AFA9788B427FF440
:107CD0005DAF072B96BF9B19002393F8BB308CF840
:107CE0000030D4E613B5164C237DF3B9E268A168E1
:107CF000019201AB802006F032FD019AA368134483
:107D0000A360E3689B1AE3606BB962B12369E28800
:107D10009A4208DD94F8C82093FBF2F102FB11337C
:107D20000BB90123237502B010BD00231A46194672
:107D30008020237502B0BDE8104001F0E9BE00BF0D
:107D40002806002030B585B0002302460D46019379
:107D5000002858D1002935D108220B460DEB02012D
:107D600006F027FE002804DA802001F043FE05B06B
:107D700030BD2A4C029A2260039A626004F13802F4
:107D8000A2609DF90820BDF80E302575002AC4E9CF
:107D900003550ADB802B04D9802001F02BFE002044
:107DA000E3E713B1C4E90333E1E7FFF74FFD002830
:107DB000DAD0E28823699A42D4BFE260E360FFF739
:107DC00091FFD4E7154CD4E90215002D01AB04DC7A
:107DD00006F0EFFD0028CADAC6E72A4606F0E9FDFC
:107DE0000028D9DB019AA3681344A360E3689B1AB7
:107DF000E360002BBBD104F13803A360FFF726FD3D
:107E00000028DCD1B0E78028B1D1044BDA68002A21
:107E1000D5D11B7D002BD2D1A9E700BF28060020B9
:107E2000054B064A9A62064ADA62064A1A63064A0D
:107E300058629A610020704728060020F9790200F4
:107E4000FD7602009D7702003D7702002DE9F341A7
:107E5000414D04466F6A41484FF0FF324FF0FF3307
:107E600005F040FA95F8B860002E6ED13C482C62BF
:107E7000E86101F067FF01F055FD041E49DB00F0E9
:107E800037FB041E45DB7B78012B61D1FB79002B8E
:107E90005ED0684685F8C830ADF802308DF80460D1
:107EA0008DF8006001F082FD041E32DB80276846F9
:107EB0008DF8007001F07AFD041E2ADB2949304656
:107EC00001F02CFF041E24DB2649384601F026FF72
:107ED000041E1EDB244CDFF89480444520D3002090
:107EE00001F0ECFD041E14DBD5F8C430802043F013
:107EF0000103C5F8C43001F0E1FD041E09DBD5F82B
:107F0000C43043F48033C5F8C430012385F8B83059
:107F10000024124805F0AAF9204602B0BDE8F0811D
:107F2000276A0026227FF3B29A4201D82434D4E78C
:107F300007EBC30257F83310107901F0EFFE01365A
:107F40000028EFD04FF0FF34E3E76FF07704E0E76D
:107F50006FF01504DDE700BF2806002008020020AE
:107F600079780200457D0200E00200200403002031
:107F700010B50A4B93F8B8404CB900F055F848B129
:107F8000FFF74EFF2046BDE81040FFF75FBF6FF0E0
:107F9000770010BD4FF0FF30FBE700BF2806002040
:107FA00030B51F4B8BB005AA03F11005186859684E
:107FB000144603C40833AB422246F7D11B78237022
:107FC0001022002101A807F056FD122200211548B9
:107FD00007F051FD102101A806F004FE00281BDD6A
:107FE0000828B8BF0820093801AB0E491A1800202C
:107FF00012F8013F0AAC04EB131403F00F0328330B
:108000006B44013014F8144C13F8143C0C7008281D
:108010004B7001F10201EBD102480BB030BD00BF43
:1080200046FF02009C1300202DE9F04F704C87B0F2
:108030004FF0000B00264FF0011AB0463546B1460E
:1080400023782BB96B4B02349C42F3D1684833E060
:108050006378052B1BD8DFE803F09003C8901D3B25
:10806000402304A88DF810B0ADF812308DF814B08C
:1080700006F071FC40B1082304A8ADF8123006F0F8
:108080006AFC08B1ADF812B0BDF81230E371237884
:108090001C44D5E7E378002BF9D1A3787BB108F134
:1080A00001085FFA88F8F2E76B689C4209D0243532
:1080B000514B9D42F8D3002007B0BDE8F08F4F4DE3
:1080C000F6E7AB68002BEAD0414620469847E6E742
:1080D000002DF0D000222B7F9A42ECD2296AA078A2
:1080E00001EBC2010B79984201D00132F3E701277D
:1080F000E07800F003008DF81400207994F805C0B2
:1081000040EA0C20ADF8120094F902000028FBB2FE
:1081100028DA07F110004FF0010C0CFA00F010EA19
:108120000A0F26D143F080008DF8100004A8CDE995
:108130000213019206F00FFCDDE90121039BC0B997
:108140009DF81020A27012F0800F18BF10330A7132
:1081500018BFDBB24FF0010214BF9A40BA404AEA9E
:10816000020A94E70120B84010EA0A0F01D118462C
:10817000DAE70137102FBBD1B7E7032E1DD1FFF788
:108180000FFF074668B1FFF725F9102809D13846D7
:10819000A31C07F1100250F8041B43F8041B904283
:1081A000F9D123786FF00201E218091B04EB5303A5
:1081B000D14213D50136F6B269E7002EF1D1B9F1FB
:1081C000000F3FF478AFA4EB090389F80230C3F342
:1081D000072389F8033089F80480EBE702F801BC33
:1081E00013F8010902F8020DE2E7A1464FE700BFCC
:1081F0003C020020DF02002004030020E0020020F7
:1082000010B5094B00211A461C78844204D15C68E1
:1082100014B102EB811010BD0131042903F14003B8
:10822000F2D10020F7E700BFF40600202DE9F3416A
:1082300050F8283C10F82C6C103304460AD103691E
:1082400050F8202C980736D5D2B9590715D50023F8
:1082500044F8283C54F8283C10330BD054E90775F7
:1082600054F8148C07F095F800284FD02E4821467A
:1082700007F0A5FA02B0BDE8F08143F004032361E2
:1082800054F8241C01AB304606F069FA10B16FF0C7
:108290001503DDE7019A54F8243C134444F8243CC8
:1082A00054F8203C9B1A44F8203C54F81C3C1344DE
:1082B00044F81C3CCEE754F8241C01AB304601F0D6
:1082C000A3FC0028E3D1019D54F8243C2B4444F83E
:1082D000243C54F8203C5B1B44F8203C54F81C3CE4
:1082E0002B4444F81C3C002DB1D0304601F030FD49
:1082F000B5FBF0F303FB1055002DA8D154F8203C3A
:10830000002BA4D0304601F0C7FCA3E744F8180CBA
:10831000A4F1100005F094F8002DABD04246394688
:108320003046A847A6E700BF080300204B1E012BDC
:1083300073B506460D460FD8FFF762FF044668B9CD
:10834000012D09D101AB01220DF10301304601F0ED
:108350005BFC019B002BF5D102B070BD07F019F852
:1083600004F12C0108B1012D05D1084602B0BDE889
:108370007040FFF75BBF034802B0BDE8704007F0F4
:108380001EBA00BF080300202DE9F74F06460191F1
:108390001546984606F02BFA044600285CD14FF0AB
:1083A0002003EFF3118A83F31288BFF36F8FDFF896
:1083B000B0B000220023584605F066F870B9DFF827
:1083C000A490A70109EB8414636813F1100F14D172
:1083D0000193584605F034F8019B06E00134042C63
:1083E0000BF1400BE5D16FF00B038AF31188BFF35B
:1083F0006F8F184603B0BDE8F08F019B2061C4E980
:1084000002350C9B63610D9BA36130466FF00F0337
:1084100009F80760C4F83C80636001F099FC58B12A
:10842000304601F095FCB5FBF0F303FB10551DB190
:10843000E36B43F00403E36318F0020F07D007F186
:108440002C010948494407F0BAF90023CDE730462A
:1084500001F022FC0346C8E76FF00F03C9E700BF35
:1084600010070020F40600200803002010B54FF08C
:108470002003EFF3118483F31288BFF36F8FFFF7AC
:10848000BFFE50B14368103307D16FF08B034360D8
:1084900000F12C01034807F092F984F31188BFF32F
:1084A0006F8F10BD0803002070B50F4C04254FF0EE
:1084B0002003EFF3118683F31288BFF36F8F636895
:1084C000103307D16FF08B030848636004F12C016F
:1084D00007F075F986F31188BFF36F8F013D04F142
:1084E0004004E4D170BD00BFF40600200803002062
:1084F00070B50A4C0A4E00253146204607F042F975
:108500000122A4F110001146013507F0FEF8042DF8
:1085100004F14004F0D1002070BD00BF200700200E
:108520002D82020070B504460E46017915481546A5
:1085300006F039F910B394F900206378002A16DBAD
:10854000202B04D0222B0ED06FF085000AE02B6880
:108550001A6840F8102C9A8820F80C2C9B7900F8A7
:108560000A3C002070BD638800F8093CF9E7212B24
:10857000EAD11038072328603360F2E76FF0120069
:10858000F0E700BFF407002008B50146034806F0F5
:1085900018F910B1012300F8073C08BDF4070020CA
:1085A0000169012381F84B300B6833B191F84930F0
:1085B0001BB10248083107F002B9704708030020D8
:1085C0000169012381F84A300B6833B191F84830D2
:1085D0001BB10248083107F0F2B8704708030020C9
:1085E00070B5012382F8483013680D4614463BB13C
:1085F00092F84A3023B10E4802F1080107F0DFF883
:10860000D4F890309A681B699A4205D17DB904F17B
:10861000180140F6CD4204E004F11801002DF8D015
:108620000022BDE870400248002305F08DB870BDFF
:108630000803002038B5056995F89E0088B195F8C3
:108640009F307BB985F84830D5F8900006F004F8E3
:10865000002204460023044805F1180105F074F8CF
:10866000204638BD0020FCE7080300200D4A0346E1
:108670000021A0F848101068C3F8940090889279FF
:10868000A3F8980083F89A2083F89C1083F89B1035
:10869000A3F89E1083F8A010402203F14C0007F0CD
:1086A000EAB900BF20FD0200F0B5D0F88C305B685D
:1086B0001B6A1F7D85B00446384606F098F80646CA
:1086C000F8B994F88630E3B1A06F4FF4806203A943
:1086D00005F0E1FF0546A0B18306A4F1180308BF29
:1086E00000F1FF3584F830600193074B0399009344
:1086F0002A4602233846FFF747FEA06F294605F0B9
:10870000EAFF05B0F0BD00BFE185020010B50469C5
:108710000023C4F8A8300C4BC4F8A400596804F135
:10872000A80269B9C3E9002204F10800074907F06B
:1087300029F804F11800064907F052F8002010BD8E
:108740000A605A60F0E700BFF407002019E8020051
:10875000A986020013B504698DF80710002384F878
:108760004830D4F8900001220DF1070105F074FFA4
:1087700010B906F00EFE40B12122002304F11801C9
:10878000064804F0E1FF02B010BD94F8A130002BC0
:10879000F2D00021212004F015FDE2E708030020BB
:1087A00037B514460A1E054620DDD4F88C0004F1C6
:1087B0004C0105F051FF012384F8493023683BB197
:1087C00094F84B3023B1114804F1080106F0F7FF8B
:1087D000D4F88C104B684A699A1ACB699B1A3F2BC4
:1087E00004D8012384F8A03003B030BD94F89E3043
:1087F000002BF9D0064B009301940123402204F191
:108800004C012846FFF7C0FDEEE700BF080300203B
:10881000A1870200F7B50D4601461D4805F0B7FFD8
:10882000044610B30646691E56F8A4395F68052948
:108830001BD8DFE801F01C1A031C222610F8061CC6
:1088400099B9012300F8063C3B6A3246187BFFF7D2
:10885000A7FF14F85C2C42B93B6A187D0D4B0093BE
:10886000019602231146FFF78FFD03B0F0BD30469D
:1088700003B0BDE8F040FFF7F9BE012304F8053C62
:10888000F3E710F8053C002BEFD00023F6E700BF1C
:10889000F4070020E185020037B5094D094900249D
:1088A00000944FF0FF334FF48062284604F014FF29
:1088B0000549284606F073FD204603B030BD00BFD1
:1088C000080300200014002064FF020030BFFFF7FF
:1088D000FDBF00BF114B124A2DE9F041D518DFF85A
:1088E0004480013DB5FBF3F55D430F4B08EB0304FA
:1088F000013CB4FBF3F403FB04540E1B07460B4985
:10890000304607F0AAF8701942460021083E07F0E9
:10891000B2F83E6704F10800BDE8F08101000000F4
:1089200000000000040000000400000014FD02002C
:10893000044B99685869884203D003494FF080522C
:108940000A6070476413002004ED00E070B5264B08
:1089500015469A6A12F0100F9A6A14BF1124102457
:1089600012F0080F9A6A18BF1224920706460AD519
:10897000586B9A6A140634D519B19A6A22F08002AB
:108980009A62132401E06FF01500174B9A6A12F0F7
:10899000010F9A6A18BF142412F0200F9A6A18BFA8
:1089A0001524D20602D49B6A9B070AD50E4B5B683E
:1089B000190506D5314600F02FFA10B180F3098869
:1089C0000224094B9A6A920642BF5A6A22F4005264
:1089D0005A629A6A42F0FF029A6200232B70204684
:1089E00070BD6FF01500CCE700ED00E0134B9A6A04
:1089F00012F0007F9A6A14BF1E201D2012F0807FA3
:108A00009A6A18BF1F2012F4002F9A6A18BF2120FB
:108A100012F4802F9A6A18BF222012F4003F9A6A3B
:108A200018BF232012F4803F9A6A6FEA02426FEA6D
:108A300012429A6218BF2420704700BF00ED00E088
:108A400010B5194B0246986A9C6A10F4805F14BFF7
:108A50001720162014F4006F9C6A18BF1820A40574
:108A600009D5986B986A000404D51AB19A6A22F461
:108A700000429A6219200C4B9A6A12F4806F9A6A2B
:108A800018BF1A20D2050CD49B6A13F4005F18BFDC
:108A90001C20054A936A43F47F43936200230B70C2
:108AA00010BD1B20F5E700BF00ED00E0F0B5484B1E
:108AB0005B688BB00446C3F30803002585F3118877
:108AC000BFF36F8F02F07F40B0F17F4F11D102F002
:108AD0000C0008280DD010074CBF0C4601250022C1
:108AE000033B8DF80720032B05D8DFE803F0246350
:108AF00067602C46F3E700239DF80720CAB902AE51
:108B000004F1200720686168324603C20834BC4281
:108B10001646F7D1099A002D54D0C2F3080121B9A5
:108B20006FEA52226FEA4222099202A9184605F022
:108B3000D5FE0BB0F0BD264BDA6A9107DBD4DA6ABA
:108B4000002AD8DBDA6A5200D5D55A69A16942F405
:108B500080725A61BFF34F8FBFF36F8F5A6931F83C
:108B6000021C22F480725A61BFF34F8FBFF36F8FE4
:108B70004DF6027291420AD09A6AD2B24AB10DF110
:108B8000070201212046FFF7E1FE0346B4E7236810
:108B9000B2E79A6A12F47F4F05D00DF10701012068
:108BA000FFF74EFFF1E79B6AB3F5803FA3D3FFF7D2
:108BB0001DFFEAE70DF107020021E3E70DF10701D0
:108BC0000020EDE722F4FF7222F00102ACE700BFC3
:108BD00000ED00E0024A536943F01003536170470F
:108BE00000ED00E0EFF30880EFF3098101B5724674
:108BF000FFF75CFF01BD00BF00F024FB202080F3E5
:108C0000118808484FF40461401880F30988EFF395
:108C100014800221084380F31488BFF36F8F00F0A3
:108C2000BBF80000801C0020084B9B6883420BD1DE
:108C3000EFF3058343B1064B5A6842F080525A6005
:108C40005A6A22F400425A6206F087BC641300207C
:108C500000ED00E0094A93686FF00A01996708493E
:108C600058674B6843F080534B60002383F31188AF
:108C7000BFF36F8F9368986F704700BF6413002035
:108C800000ED00E015498A684FF030001044EFF322
:108C9000098C80E8F01F202080F31288BFF36F8FCB
:108CA0000F4F4FF000664A698A603E604FF07004D3
:108CB000141920680B4C2060506F0023536780F319
:108CC000118804B5104600F025F9BDE8044002F112
:108CD000300090E8F01F8CF309887047641300207F
:108CE00004ED00E0FC0700201EF0040F0CBFEFF3C2
:108CF0000880EFF30980816911F8021C0229FFD076
:108D000001B505F0EDFD01BD40B2002807DB044AC6
:108D10004109012300F01F00834042F821307047D1
:108D200000E100E040B200280CDB4309064900F0F6
:108D30001F0020330122824041F82320BFF34F8FD0
:108D4000BFF36F8F704700BF00E100E0054B4209A1
:108D500000F01F0053F82220012303FA00F0104016
:108D6000704700BF00E100E040B20028A8BF00F15A
:108D7000604001F10101B8BF064B4FEA4111ACBFA1
:108D800000F5614000F00F00C9B2B4BF195480F87B
:108D90000013704714ED00E00F4A08B50F4B22F0A6
:108DA0007F029A60BFF34F8FBFF36F8FD3F8882095
:108DB00022F47002C3F88820EFF3148323F0040335
:108DC00083F31488BFF36F8F03F048FD04F0E6FCD3
:108DD00000F074F803F094FD0070020000ED00E074
:108DE00042F8203C009B42F81C3C0A49019B42F897
:108DF000183C029B42F8143C21F001014FF08073B3
:108E000042F8043C42F8081C0023203A02654367FC
:108E1000704700BFA1740200094A0346906870B110
:108E200013F1160F006E05D0A0F140029A4205D84A
:108E3000834203D2814228BF002070470020704740
:108E40006413002008B514460A4A0B4B9060026F69
:108E50001A600D4600F05EF8204685F3098800216F
:108E600063B681F31188BFF36F8F00220023FEF7F2
:108E700017FB00BF64130020FC07002001491022EB
:108E80000A60704710ED00E072B6404080F3118830
:108E9000BFF36F8FBFF34F8F30BF62B6BFF36F8FDB
:108EA000704700BF72B6494081F31188BFF34F8FFE
:108EB00020BF80F3118862B6704700BF04480023CA
:108EC0002021C2180133302B82F80013F9D17047EA
:108ED00000E100E001B5EFF30580A0F110004FEADA
:108EE000C0000449014409C99847BDE8014002494E
:108EF0000847000094FB020031890200024B034A3C
:108F00000348012100F076B8000004200000002092
:108F10007CFD0200026E054B403A1A60044A402173
:108F2000C3E901121846012100F06EB800080020C4
:108F300000000B15084AC2F898000B6823F01F03C5
:108F4000034343F01003C2F89C308B6843F00103E5
:108F5000C2F8A030704700BF00ED00E02DE9F043FB
:108F6000DFF8608085B00E461F4604464FF00009CA
:108F7000B14523DA6068D8B13FB1411E08421BD128
:108F80001F2819D92368194216D12368019305F0C7
:108F9000B6FCA36803430393D8F89050C5F30725A4
:108FA000D0B2013DA84207D801A9FFF7C3FF421C78
:108FB00009F101090C34DBE76FF01502104605B02A
:108FC000BDE8F08300ED00E0044B0522C3F89420D7
:108FD000BFF34F8FBFF36F8F704700BF00ED00E00E
:108FE000BFF35F8F024B0022C3F89420704700BF8D
:108FF00000ED00E010B5034C01232278FFF7AEFF2F
:10900000207010BDAE13002008B50B4A0023127863
:10901000FFF7A4FF10F1160F07D0084A0021D2F87D
:109020009030C3F30723984200DB08BDC2F89800D4
:10903000C2F8A0100130F2E7AE13002000ED00E00E
:109040002DE9FF41524B534CD3F890302568C3F3C0
:1090500007239D4200F29980FFF7C2FF00200C26F3
:10906000854218D14C4C4D4F25706846FEF740FBA9
:10907000DFF81C8106460025AE4213D1237844490F
:109080000020D1F89020C2F30722934277DBFFF74C
:109090009BFF00201CE0616806FB0011FFF74AFF00
:1090A0000130DDE7009800EB05114FEA051CCB68A5
:1090B0003B40B3F5000F50D00DD8B3F5001F36D0AC
:1090C000B3F5800F3ED0B3F5801F13D06FF01500BD
:1090D00004B0BDE8F081B3F1807F47D0B3F1007FE9
:1090E000F4D150F80C3088684A6805F008FC40F468
:1090F000802009E050F80C3088684A6805F0FFFBD2
:1091000040F0885040F43020CDE901230390D8F896
:1091100090302078C3F30723013B9842D6D801A9A9
:10912000FFF708FF2378013323700135A4E750F8D7
:109130000C3088684A6805F0E2FB40F0885040F443
:109140000020E1E750F80C3088684A6805F0D7FB4A
:1091500040F0E06040F40030D6E750F80C3088680A
:109160004A6805F0CCFB40F08270CDE750F80C3037
:1091700088684A6805F0C3FB40F08870C4E7C1F80E
:109180009830C1F8A00001337BE74FF0FF309FE734
:1091900000ED00E088FD0200AE1300200000F0FFAB
:1091A00008B5024B1B689847002008BD0C0800203A
:1091B000034B044A1860937843F00203937070479E
:1091C0000C0800200C01002008B50649064821F0D3
:1091D0000701C1F1005202F5802205F088F8002055
:1091E00008BD00BF47390020100800200E4A0123A7
:1091F000C2F840354FF080424FF08051C2F87835C8
:10920000D1F83001082808D1D1F83411052904D843
:109210000648415C09B1C2F838364FF0804301225C
:10922000C3F880250020704700E001407CFF020069
:1092300020B1034B800143F001031847704700BF82
:1092400030FD020002F0EABB020600F07F0312D5F7
:10925000082B05D1010700F00F0306D50E48704713
:1092600010F0780F12D100F00F034C2000EB4310E8
:109270000A4B18447047082B05D1020700F00F0372
:1092800006D50748704710F0780FF6D000207047D9
:10929000044800EB43107047680900201C080020B8
:1092A000880A0020880900200149024806F087BA90
:1092B00044080020A80300200146014806F01ABA1D
:1092C0002C02002002480022002304F085B800BFD1
:1092D0002C02002013B5124800F0BEFE114B98423C
:1092E0001AD1114803F0BEF90024104803F000FA27
:1092F0000F49104800944FF0FF334FF4806204F0A0
:10930000EBF90D490B4806F04AF80C480C4906F0F9
:1093100039FA204602B010BD6FF00400FAE700BF32
:10932000299502000000AD0B90FF0200ACFD020089
:1093300040180020A803002082FF020044080020FB
:109340004596020010B50E49BFF35B8F002351E82C
:10935000002F012A03D141E800300028F7D1BFF3E4
:109360005B8F0CD151F8044C1439204605F006F9F6
:10937000783004D12046BDE8104005F0DAB810BDC1
:109380003C08002038B5002464F07F00C0B2FFF72D
:109390005BFF013405F0C8FA082CF5D10E4D00240E
:1093A000E0B2FFF751FF036903B90561013405F02D
:1093B000BBFA082C05F14005F2D1084805F0B4FAD3
:1093C000074BD3F87C2212B9064AC3F87C22064820
:1093D00005F0AAFA002038BDAC0E00206809002074
:1093E0001C080020AC0A0020880A002010B5054C9B
:1093F000FFF768FF20B14168204605F0A4FFF7E7BA
:1094000010BD00BFEC01002007B500230E4800226C
:1094100001A903F0F5FA90B1FFF7E8FF0A4800222E
:10942000002301A903F0ECFA38B901980423406045
:109430000374FFF741FFFFF737FF002001E00198B9
:10944000406003B05DF804FBEC010020022810B579
:1094500011D8094B1C5CFFF7D7FF60B100220274E2
:109460000472FFF729FF054B93F824301BB1BDE8C8
:109470001040FFF719BF10BD8DFF02001C0800202F
:10948000F8B5877806463846FFF7DEFE3B06F578E6
:10949000044612D5002D43D1FFF7B6FF034600283E
:1094A0003ED00122A5770274032202739C60FFF76D
:1094B00003FFBDE8F840FFF7F7BE4DB1012D2FD1F6
:1094C000FFF7A2FF034658B3657705740573EDE710
:1094D000FFF79AFF20B3B278124B12F0800F02F020
:1094E000080111D041B1D3F8A836E3600123037419
:1094F000022303738460DAE702F00F02142101FBF8
:109500000233D3F80836F0E711B1D3F8A837ECE707
:1095100002F00F02142101FB0233D3F80837E4E70D
:10952000F8BD00BF00700240F0B5064689B01422B5
:10953000002103A806F09FFA3378013B052B21D8C0
:10954000DFE803F07A0314146A1603238DF814304D
:109550000024FFF759FF0346A0B1047400F108028C
:10956000DDE9050182E8030018461DE00423EDE76C
:10957000B7783846FFF768FE837A044623B1013B8B
:10958000022B43D909B0F0BD3B06F57813D5002D69
:10959000F8D1FFF739FF03460028F3D00122A57761
:1095A0000274032202739C60FFF786FE09B0BDE8D7
:1095B000F040FFF779BE55B1012DE3D1FFF724FF4D
:1095C00003460028DED0657705740573EBE7FFF7E7
:1095D0001BFF07460028D5D0012303740223037321
:1095E000846004F10C01B07805F0FFF9134AE168DA
:1095F000B2F88C328B4206D95B1AA2F88C3201F099
:109600007DF83846D0E7A2F88C52FAE7304609B028
:10961000BDE8F040FFF734BF01A801F04DF89DF818
:109620000530052B04D19DF8043013F0600FA9D04C
:10963000034B059301248CE702248AE71C080020D1
:10964000880900202DE9F043A64CDFF89C9285B0F4
:109650008046FFF737FE074610B905B0BDE8F08336
:1096600094F825303A7C3BB9002A00F0868079686E
:109670009D4805F068FEECE7042A42D8DFE812F0C6
:109680007D0005000001160140013B7BBD68032BF6
:1096900037D8DFE803F0023D5A5F6E69934B002232
:1096A00032607260D3F880143170D3F88414717012
:1096B000D3F88814D3F88C0441EA00217180D3F8E0
:1096C0009014D3F8940441EA0021B180D3F898149F
:1096D000D3F89C3441EA0323F3800823EB6030681D
:1096E0007168834B03C311462B68687A984796F9D3
:1096F0000030002B08DBF38833B1A4F88C3200F083
:10970000FDFF79684846B4E70023A4F88C32F8E7F7
:109710006B7F002BF5D02B7F002BF2D000266E77CD
:109720004FF0FF3273482E774FF0FF3305F00FF9FB
:109730006B6901936B68CDE9023601A9687A00F084
:10974000E1FC6C4805F005F9DBE72B680121687A3C
:109750009847D6E7AB7A6BB9EB7F5BB965484FF0BA
:10976000FF324FF0FF3305F0F2F800F0CDFF614813
:1097700005F0EFF82B680221E9E73A7A042AC0D80D
:10978000DFE802F059032367730000F031FC05465F
:109790000028B6D100F06AFBBFF35B8F5649012366
:1097A00051E8002F002A03D141E800300028F7D10A
:1097B000BFF35B8FA5D141F8085C41F8105CE0690C
:1097C0006361143904F05DFE9BE7002565F07F00BE
:1097D000C0B2FFF739FD037A13B1407A01F0FCF80B
:1097E0000135082DF2D194F854311BB194F855018C
:1097F00001F0F2F80025E8B2FFF726FD037A13B175
:10980000407A01F0E9F80135082DF4D194F874326A
:109810001BB194F8750201F0DFF8002000F0CCFBDA
:10982000012384F825302368002B3FF46AAF002120
:109830000220984765E7002584F8255001F032F8AA
:10984000FFF780FD2368002B3FF45BAF294604201F
:10985000EFE7002B3FF455AF00F0D4FB2368002B5B
:109860003FF44FAF00210520E3E72268002A3FF4D0
:1098700048AF002B3FF445AF00210620904740E75A
:1098800008F110054FF0FF334FF0FF32284605F086
:109890005EF8FFF777FD284605F05BF858F8283C9E
:1098A000002B3FF42EAF00210120C2E794F8743260
:1098B0007BB1012584F8895284F88852FFF7A4FD12
:1098C00038B10E4A057405738260FFF7F5FCFFF7A7
:1098D000EBFC58F8283C002B3FF413AF00210A2082
:1098E000A7E700BF1C080020EC0100200070024028
:1098F00020080020540800203C080020880A00208E
:1099000005F0DDFC00F0CEFF00F0A6FAFFF76EFDDB
:10991000FFF738FD05F0CCFC014800F09DFBF0E6B8
:109920002995020038B5164D95F824402CBB05F159
:10993000380005F06AFE204601F08CF9224601212C
:10994000E8612720FFF710FA05F0B2FCFFF71AFDD7
:10995000044610B9012385F824300A4B1B680BB16B
:10996000FFF7A2FC4FF08043D3F83834DB0702D571
:109970000020FFF76BFD204638BD0024FBE700BF49
:109980001C0800202C020020074B93F824203AB139
:1099900093F82530002B14BF00206FF012007047A1
:1099A0006FF01200704700BF1C08002038B5104B44
:1099B00093F824300446C3B105782846FFF744FCE9
:1099C00010B96FF0150038BD457223798372638832
:1099D00043602078618810F0080F02D14B1E0B42C3
:1099E000EFD104F0FDFF0020EDE76FF01200EAE791
:1099F0001C08002038B5124B93F824200546CAB144
:109A000093F82530B3B1FFF71FFC0446A8B1837A61
:109A1000012B12D007D9023B012B07D96369A3613F
:109A20000020E06038BD00F075FEF7E7284600F042
:109A300017FEF3E76FF01200F4E76FF01500F1E79F
:109A40001C08002038B50E4B93F82420054682B13F
:109A500093F825306BB1FFF7F7FB68B115F00804F8
:109A60000AD1284600F01EFE284600F0EFFF2046EF
:109A700038BD6FF01200FBE76FF01500F8E700BF8C
:109A80001C08002038B50C4B93F8242005460C46E2
:109A900062B193F825304BB1FFF7D6FB48B144B122
:109AA000284600F0E5FD2070002038BD6FF0120060
:109AB000FBE76FF01500F8E71C08002070B5134EA7
:109AC00096F824300446C3B1FFF7BEFB0546B8B193
:109AD000230705D4204600F0E5FD204600F0B6FF40
:109AE0002B7A83B901232B7296F825300BB900200D
:109AF00070BD204600F070FFF9E76FF01200F7E745
:109B00006FF01500F4E76FF07700F1E71C08002014
:109B10002DE9F043DFF8E4801E4698F8243085B044
:109B2000074689461546002B61D098F82530002B52
:109B30005DD003065ED5FFF787FB0446002859D0A9
:109B4000037A002B56D04FF0FF334FF0FF3208F16D
:109B5000380004F0FCFEA37F4BB108F1380004F09C
:109B6000F8FE6FF00A04204605B0BDE8F083A37A42
:109B7000C5B13BB30123A3774FF0000801A93846D4
:109B8000CDE90195CDF80C8000F0BCFA1C4B984251
:109B900029D084F81E801EBB6FF00404194804F01D
:109BA000D8FEE0E7E27F02B1E577002BE2D100F0DA
:109BB000B7FDB842DED000F0A7FD124804F0C9FEA0
:109BC0000024D0E7B8F80A30AB42F0D96268B5FBA0
:109BD000F2F302FB1353002BE9D10123E377E6E70D
:109BE000C6F80080D8E706B135600024D6E76FF0EC
:109BF0001204B8E76FF01504B5E700BF1C08002099
:109C00000000AD0B540800202DE9F0411D46204B0B
:109C1000174693F824200E46002A33D093F82530B7
:109C200083B3030631D401B97FBBFFF70DFB0446B4
:109C300058B3037A4BB34FF0FF3316484FF0FF325F
:109C400004F085FEE3689F42B84628BF984646B9AF
:109C50003FB905B12B600F4804F07BFE0020BDE842
:109C6000F081A1694246304605F0F7FEA3694344FE
:109C7000A361E368A3EB0803E360002DEBD0C5F814
:109C80000080E8E76FF01200E9E76FF01500E6E703
:109C90001C0800205408002070B51E4D95F82420A3
:109CA000034682B395F825206AB31B062ED4FFF72E
:109CB000CBFA044650B3037A43B34FF0FF334FF06F
:109CC000FF3205F1380004F042FEE368B3B9012623
:109CD00063692677A361637F83B1FFF795FB30B992
:109CE00005F1380004F035FE6FF00B0070BD06740E
:109CF00084600673FFF7E0FAFFF7D6FA064804F02F
:109D000028FE0020F2E76FF01200EFE76FF0150079
:109D1000ECE700BF1C0800205408002010B5084BD9
:109D200093F824300C462BB1FFF78EFA28B104606B
:109D3000002010BD6FF01200FBE76FF01500F8E790
:109D40001C080020014B1860704700BF1C08002051
:109D500008B5074B93F8243023B1FFF775FA20B10B
:109D6000406808BD6FF01200FBE76FF01500F8E7E0
:109D70001C0800204FF08053D3F83021082A06D168
:109D8000D3F83431052B04D8034AD05C7047002047
:109D900070470120704700BF91FF0200064B10F092
:109DA000800FA3F1D80208BF134600F00F0018225D
:109DB00002FB0030704700BFC41100204FF02003A9
:109DC000EFF3118083F31288BFF36F8F0A4BD3F840
:109DD000001C032261B949F27531C3F8001CC3F8B5
:109DE000142DC3F8001C80F31188BFF36F8F7047E8
:109DF000C3F8142DF7E700BF00E006404FF0200342
:109E0000EFF3118083F31288BFF36F8F0A4BD3F8FF
:109E1000001C61B949F27532C3F8002CC3F8141D57
:109E2000C3F8002C80F31188BFF36F8F70470022B6
:109E3000C3F8142DF6E700BF00E006404FF0805352
:109E4000D3F83031082B02BF024B0022C3F81C2C80
:109E5000704700BF00700240024A00231360024AAC
:109E600013707047A4120020B313002008B54B4BA9
:109E70004FF40062C3F80024FFF77CFF08B1FFF73E
:109E80009DFF4FF08053D3F83031082B19D14FF09C
:109E90002003EFF3118083F31288BFF36F8F404BE1
:109EA000D3F8001CC02200296FD149F27531C3F8E4
:109EB000001CC3F8142CC3F8001C80F31188BFF3F6
:109EC0006F8F364B0122C3F80025D3F8002412050A
:109ED000FBD54FF40062C3F800244FF08053D3F851
:109EE0003031082B18D14FF02003EFF3118083F3AA
:109EF0001288BFF36F8F2A4BD3F8001C002947D17B
:109F000049F27532C3F8002CC3F8141CC3F8002CB6
:109F100080F31188BFF36F8FFFF72CFF30B1FFF78D
:109F20006DFFFFF727FF08B1FFF748FF4FF08053A1
:109F3000D3F83031082B194B0AD140F2E372C3F841
:109F400000284022C3F80428BFF36F8FBFF34F8F60
:109F50008022C3F81C250122C3F83025114B40F2A2
:109F6000FF121A60104B00211960104B1970FFF797
:109F700065FF0F4B19700F4B02221A70FFF7FAFEA4
:109F800050B1BDE80840FFF739BFC3F8142C94E77F
:109F90000022C3F8142CBBE708BD00BF00700240CC
:109FA00000E00640A01200209C120020AF13002009
:109FB000B1130020B3130020094B002210B51A7012
:109FC000084A094B094C002808BF1346C4F800335F
:109FD0002720FEF799FE0123C4F8043510BD00BF09
:109FE000B2130020FDFFDF01FDFFFF010070024002
:109FF000034B1878012894BF00200120704700BF50
:10A00000B313002010B54FF02003EFF3118183F359
:10A010001288BFF36F8F0E4B1B7803F0FF0083B1E4
:10A020000C4BD3F8002412F400720AD10124C3F8B7
:10A030002C45D3F82C45D3F80044A40502D5C3F829
:10A040002C25002081F31188BFF36F8F10BD00BF56
:10A05000B213002000700240F8B51C4B1C7894BB72
:10A060001B4A106001221A7040F2FF17264664F066
:10A070007F0514F0080FEDB214BF39464021284681
:10A0800004F0AEFC2846FFF789FE0134092C8675E2
:10A0900006730661EBD1002440F2FF17254614F049
:10A0A000080FE6B214BF39464021304604F098FC50
:10A0B0003046FFF773FE0134092C85750573056181
:10A0C000EDD10448F8BD0448FCE700BFB3130020FD
:10A0D000A41200200000AD0B0500AD0B084B10F0E2
:10A0E000800F00F00F0114BFD3F81025D3F814250A
:10A0F00001238B40134214BF01200020704700BF92
:10A10000007002402DE9F84302464FF02003EFF3C0
:10A11000118783F31288BFF36F8F030703D1194BA5
:10A120001B78834229D1184B184E1C68356810469D
:10A1300004F04EFCE443A4B24FF001092C4309FAA9
:10A1400000F814EA08041AD11046FFF727FE80F839
:10A150000C90034607C91C6183E807009C750C4BF3
:10A160000C4845EA080580223560C3F8042187F3CE
:10A170001188BFF36F8FBDE8F8830748F7E70748FA
:10A18000F5E700BFB1130020A01200209C120020B0
:10A1900000E100E00000AD0B0A00AD0B0B00AD0BC1
:10A1A00010F0080F074B06D0D3F8C00410F4803F1E
:10A1B00018BF0020704700F00F0000F5947053F8AE
:10A1C00020007047007002402DE9F74FA84BD3F8EC
:10A1D000604134B10022C3F86021D3F86C44C3F865
:10A1E0006C44D3F828214AB10022C3F82821A14B9E
:10A1F000187804F0EDFB012383401C439E4F9F4ED3
:10A200003D7897F9008015F0080143D1B8F1000FAF
:10A2100005F00F032EDA9A4A52F8230020B342F8D1
:10A2200023101422534303F1804303F51C33D3F866
:10A230000836944A117803F001034B401370FFF77E
:10A24000FDFD914803F0FCF82846FFF7A7FD837D4C
:10A25000032B37D1284604F0BBFB012303FA00F09F
:10A26000336823EA00033360DFF82092DFF82082AE
:10A2700001255FE0874A52F823000028F4D042F815
:10A2800023101422534303F1804303F51C33D3F806
:10A290000837CEE7B8F1000F754B09DBD3F8502132
:10A2A000002AE1D00022C3F85021D3F8A837C0E734
:10A2B000D3F82C21002AD7D00022C3F82C21D3F8C0
:10A2C000A836B6E7037BDBB9284604F081FB0123FF
:10A2D00003FA00F03368B8F1000F23EA000333609B
:10A2E00001DA882DC0D106238DF8043000238DF8C3
:10A2F0000730674B8DF806501B6801A89847B3E7F5
:10A30000002DB1D15A4B0122DA64ADE794FAA4F0E2
:10A31000D9F80020B0FA80F005FA00F31A430F28AC
:10A32000C9F8002024EA0304326840F3B7801342DE
:10A3300000F0C580002CE9D14D4BD3F800215AB173
:10A34000C3F80041544B1C704A4B1C70012301930D
:10A350004F4B01A81B689847454BD3F85421EAB1ED
:10A360000022C3F85421D3F80413890216D58DF8BE
:10A370000420D3F82025ADF80620D3F8C034002BF4
:10A38000D9F8003014BF4FF001224FF4807213430C
:10A39000C9F800303E4B01A81B689847344BD3F8EE
:10A3A0005821002A2ED00022C3F85821D3F80044A7
:10A3B000C3F80044E30508D5374B01221A70022385
:10A3C0000193334B01A81B689847A50508D5324B6C
:10A3D00000221A70032301932D4B01A81B68984794
:10A3E00060050FD52C4B1A7862B100221A70204BF1
:10A3F0000122C3F808259A6504230193244B01A880
:10A400001B6898471A4BD3F85C310BB31E4B9B6803
:10A4100013B93B7859061BD0154B0022C3F85C21B9
:10A42000D3F88034134A23F07F031370336823F08A
:10A4300001133360D9F8003023F4803343F0010373
:10A44000C9F8003005230193114B01A81B689847F8
:10A450003268D9F800301A4207D00B480022002396
:10A4600003F012F8002800F09F8003B0BDE8F08FE1
:10A4700000700240B1130020B01300209C12002095
:10A4800008710240AF1300201C020020A01200201F
:10A49000A412002030710240B213002013407FF458
:10A4A00049AF062260F07F018DF804208DF8061078
:10A4B0008DF80730D8F8003001A898473AE706230E
:10A4C000A0F110018DF804308DF806108DF80750BA
:10A4D000F0E718F0012314BF93FAA3F898FAA8F84C
:10A4E000B8FA88F8B8F10F0F18D9A8F11005EDB235
:10A4F0002846FFF753FC04462846FFF751FE6368E1
:10A50000B4F814C02268984230D81B1A00EB020E2F
:10A5100011466360C4F800E082462AE048F08005F6
:10A520002846FFF73BFC4368B0F814A001689A4541
:10A5300028BF9A4601F06043B3F1005F044604D09F
:10A540004348524605F089FA4149226863685244FB
:10A550002260A268A3EB0A03D20768B2636033D516
:10A56000BAF1000F32D1002323732FE011464FF0D0
:10A57000000A604525D1003B18BF01231AB350459E
:10A5800021D9012303FA08F32BEA030333600623DE
:10A590008DF804302F4B8DF8065002221B68A275EF
:10A5A0008DF8072001A89847D6F800B0D9F80030F8
:10A5B0001BEA03088DD1284803B0BDE8F04F02F034
:10A5C0003FBF0023DAE768B2002BCCD04FF08053B6
:10A5D000D3F83031082B02BF204B8222C3F81C2C49
:10A5E000D9F800303D70012202FA08F823EA080386
:10A5F000C9F80030236915F0080F53442361174B45
:10A6000017D1002805F00F054FF0140000FB0530AE
:10A61000B5BF03EB85030A35C0F80016C0F8001774
:10A62000B5BFC0F804A6C0F804A75A6043F82520B7
:10A630001BE70028B5BFC3F8A016C3F8A017C3F8DE
:10A64000A4A6C3F8A4A7B4BF5A629A640DE700BFDA
:10A65000AC100020A41200201C0200200070024058
:10A66000024B40F48070C3F8180570470070024038
:10A67000030713D400F00F0310F0800F084A0BBF3C
:10A6800003F5887303F5847302EB830252F8230009
:10A6900008BF5068003818BF01207047002070477D
:10A6A00000700240034BC3F80C0540F48070C3F8FF
:10A6B0000C057047007002400023036043600E4B9E
:10A6C000D3F880240270D3F884244270D3F888240D
:10A6D000D3F88C1442EA01224280D3F89024D3F8B4
:10A6E000941442EA01228280D3F89824D3F89C344F
:10A6F00042EA0323C380704700700240014B0122ED
:10A70000DA64704700700240014B01221A657047FD
:10A7100000700240014B01225A65704700700240F0
:10A72000014B1878704700BFB113002010B50246E6
:10A730004FF02003EFF3118483F31288BFF36F8F80
:10A7400004F046F90B49012303FA00F00B6823EAF1
:10A7500000030B6012F0080101BF02F00F02064B6C
:10A7600002F5947243F8221084F31188BFF36F8FBF
:10A7700010BD00BFA012002000700240F7B50146D6
:10A780004FF02003EFF3118583F31288BFF36F8F2F
:10A79000FFF704FB0646084604F01AF9012211F0FF
:10A7A000800F02FA00F22E4818D1036832EA03043F
:10A7B0000AD00846FFF7BAFF0323B37585F3118863
:10A7C000BFF36F8F03B0F0BD2649347323EA020351
:10A7D00003600B6823EA02030B60EDE70B0715D457
:10A7E0008029214B2FD001F00F0404F2DA346400E9
:10A7F000C3F80048D3F80448D3F80478E4B244F02E
:10A8000002043C43C3F80448D3F80438154F0468E5
:10A810003B6864EA030C1CEA020FCFD013433B6091
:10A82000002333730323B3758DF807300F4B8DF876
:10A83000061024EA0204062204601B688DF8042036
:10A8400001A89847BAE740F2B474C3F80048D3F8B7
:10A850000448D3F80478E4B244F00404D1E700BF1C
:10A860009C120020A012002000700240A4120020C0
:10A8700038B50446094D4FF0FF324FF0FF332846FC
:10A8800002F002FE2046FFF779FF284602F0D8FDCD
:10A89000034B8022C3F8042138BD00BF1C020020F6
:10A8A00000E100E0F8B54FF0FF324FF0FF332B48E6
:10A8B00002F0EAFD2A4B8022C3F884212720FEF70C
:10A8C00045FA98B1274E284B34681B68240C2404A1
:10A8D0001C43012764BB254D40F2FF133360272042
:10A8E000C5F80445FEF71EFAC5F80043204A137860
:10A8F0008BB11E4B0021C3F808110121C3F80026BB
:10A90000C3F804165960D3F808110029FBD00021C0
:10A91000C3F808111170154B0022C3F80025FFF78A
:10A920008DFA0E4802F08CFD124B01221A70F8BD10
:10A9300094FAA4F5B5FA85F50F2D2846C6BFA5F102
:10A940001000C0B240F08000030701D4FFF716FFEB
:10A9500007FA05F524EA0504BCE700BF1C02002045
:10A9600000E100E0A01200209C12002000700240D4
:10A97000AF130020B313002010B504464FF0FF3290
:10A980004FF0FF33114802F07FFD2046FFF7F6FE3F
:10A9900004F00F02012393400D4A14F0800F14BFFE
:10A9A000D2F81015D2F814156FEA030315BF0B4047
:10A9B0000B40C2F81035C2F81435044802F040FDCF
:10A9C000044B8022C3F8042110BD00BF1C020020EC
:10A9D0000070024000E100E070B50446FFF77EFB26
:10A9E00068B904F00F02012514F0800F154B05FA29
:10A9F00002F205D0D3F810150A43C3F8102570BD34
:10AA0000D3F814150A43C3F81425631E062BF6D891
:10AA10004FF02003EFF3118683F31288BFF36F8F9B
:10AA20002046FFF783FE204603F0D2FF064A136854
:10AA3000854023EA0503136086F31188BFF36F8F07
:10AA4000DDE700BF007002409C120020030610B535
:10AA5000044605D4FFF70CFE10B12046FFF766FE52
:10AA6000014BC3F8184510BD00700240084B70B58B
:10AA7000C31A0D4607499B10044659430648402215
:10AA800003F0E6FF2B4601462046BDE8704018471C
:10AA9000BC120020B76DDBB61CFB020073B50C4C7A
:10AAA0000C4A4023041B00930D460B460A49A41090
:10AAB00061430646094803F0F8FF011E05DA3046F7
:10AAC0002B4602B0BDE87040184702B070BD00BF11
:10AAD000BC12002017EB0200B76DDBB61CFB0200B6
:10AAE000002270B5012104461046FEF73DF90F48DB
:10AAF00001F01EF90E4B984215D101F029F9266993
:10AB00000C49304603F0AAFC00280BDB0125356414
:10AB10002469084904F11C0003F0A0FC002801DBB3
:10AB2000E564002070BD6FF00400FBE76DAB020030
:10AB30000000AD0BB0FD020070B501460C230948C2
:10AB40004B43C418D4E90E56403300221844A26384
:10AB500003F06BFF2DB132462B460348BDE8704031
:10AB6000184770BDBC1200201CFB020010B1012868
:10AB700004D07047034B1B6C5B0701D1FFF7DCBFB0
:10AB8000704700BFBC12002008B54FF02003EFF360
:10AB9000118183F31288BFF36F8F124A136843F059
:10ABA00002001060DA0708D481F31188BFF36F8FB9
:10ABB0000120BDE8084001F0E3B84FF08043D3F82E
:10ABC0000C24D3F80C34DB07EED5074803F02DFF37
:10ABD00081F31188BFF36F8F0020BDE80840FFF7B5
:10ABE000ABBF00BF0C130020FC1200201FB50022D9
:10ABF0000123CDE90223094ACDF800D06B46CDF8F8
:10AC000004D003F081FF002805DB4FF480420023CD
:10AC1000684602F039FC05B05DF804FB35EB020034
:10AC200010B54FF02003EFF3118483F31288BFF3C4
:10AC30006F8F074A136823F00201DB07116002D40B
:10AC4000012004F0A7FA84F31188BFF36F8F10BDC1
:10AC50000C130020024AC3B21C2003FB00207047E3
:10AC6000BC1200202DE9F0413849BFF35B8F074645
:10AC7000012251E8003F41E800200028F9D1BFF34C
:10AC80005B8F33B9324933484B60CB608A6003F045
:10AC9000F8FB7B1E012B2BD8012F07D14FF08043EF
:10ACA000D3F81C3403F00303012B21D004F071FB13
:10ACB0000546F8B9284B1B78E3B14FF080430222D8
:10ACC000C3F808230646DFF894804FF08044D4F898
:10ACD0001824D4F81834D20316D503F00303012B3B
:10ACE00001D0012F10D15DB386F31188BFF36F8FB0
:10ACF000BDE8F0814FF02003EFF3118683F3128853
:10AD0000BFF36F8F0125DEE7ADB13046FEF7CAF81D
:10AD1000D4F81835002BDAD1D4F80421002AD6D083
:10AD2000C4F80431D4F804310123C4F81835C8F844
:10AD30008031A360CBE70021212002F043FAE7E74E
:10AD40004FF080430222C3F80423D1E7B812002059
:10AD5000A8120020D8120020D813002000E100E043
:10AD600008B5074804F0BEFA38B10648FEF720FAE5
:10AD70000448FCF78FFB002008BD6FF01200FBE7D2
:10AD800058FB020089AD02000A2838B5074D044679
:10AD900004D1AB680D215B6828469847AB6803482F
:10ADA0005B68E1B29847204638BD00BF58FB0200FF
:10ADB000F0B54068057B01F01F0444EA45140569BD
:10ADC00087B0002D64D0B2F5001F00F1100506D148
:10ADD0002146284604F05EFA002007B0F0BD01AE1F
:10ADE0000027B2F5800F0197776039D1B3F1007F6A
:10ADF00014BF052304238DF804300023CDE9046338
:10AE00000393836823FA01F111F001011AD1B2F121
:10AE1000A07F17D104F01F03620903F5E0732AD065
:10AE2000012A3BD11F4A52F82330DB070AD40DF127
:10AE3000030632462146284601F080FA1A4B984212
:10AE40001CD0029603AA2146284601F039F9174B77
:10AE5000984220D101222146284601F0D7FABBE7CB
:10AE6000B3F1C06F05D0B3F1007F14BF01230223FB
:10AE7000C1E70323BFE74FF0A042D4E7314628469D
:10AE800001F0BEFA094B9842DBD06FF00B00A4E74B
:10AE90006FF08500A1E76FF015009EE751F82330B1
:10AEA000FFDE00BF000300500400AD0B0000AD0B3F
:10AEB00038B545682B69B3B11035284601F090FAD2
:10AEC000044680B90146284601F052FA084B9842E0
:10AED0000BD108492246284601F02AFA22460521CC
:10AEE0000620FDF741FF002038BD6FF00400FBE7AE
:10AEF0000000AD0BF9AE0200420970B5034602D066
:10AF0000012A17D070BD0D4E326951680029F9D061
:10AF100003F01F0301250C689D400029F2D08A68C8
:10AF20002A4002D04B68304698472CB1236821460E
:10AF30001C46F2E7024EE7E72346F8E744FB02002F
:10AF400030FB02002DE9F043466840F20635D0069A
:10AF5000337B87B002EA050554BFC2F340100320DB
:10AF600001F01F07B5F5837F144647EA43178DF8B4
:10AF7000030044D00FD8062D18D007D8B5B1022D44
:10AF80003FD06FF0150007B0BDE8F083B5F5807FC6
:10AF9000F7D101250AE040F20222954233D0B5F5FF
:10AFA000407F32D0B5F5007FEBD1022522032ED5AC
:10AFB000726801238B40C2F80835326992BB07F0F2
:10AFC0001F037F092BD0012F79D13F4A02EB830267
:10AFD00084F48033D2F80017C3F30043C4F3404431
:10AFE00044EA430421F4E16144EA800421F00701CA
:10AFF00044EA05230B43C2F800370020C3E70725C6
:10B00000D4E70425D2E70525D0E70325CEE763037F
:10B0100041BF012372688B40C2F80C35CDE74FF079
:10B02000A042D3E710360DF102023946304601F056
:10B0300085F914F4403F80460CD13946304604F07F
:10B0400027F9224B9845D8D19DF80210304601F0DF
:10B05000D1F9D2E701AB4FF0000903AA39463046D7
:10B06000CDE90439CDE90199CDF80C9001F028F82B
:10B07000164B984285D114F4003315D09DF8033057
:10B080008DF80E3084F48034C4F300444B4603AA98
:10B09000394630468DF80C508DF80D4001F0CAF855
:10B0A0000A4B9842CDD06CE7CDE9043303AA0DF1E9
:10B0B000030339463046039301F002F8F0E703F545
:10B0C000E07352F82330FFDE000300500000AD0BA8
:10B0D000036803F01F025B09026004D0012B0348E0
:10B0E00018BF002070474FF0A04070470003005089
:10B0F0002DE9F04FDFF89881DFF8989185B015467B
:10B10000824600EB8101514503D1002005B0BDE826
:10B11000F08FDAF80030D804C3F3432203F07F0441
:10B1200000F1AF807F2C4FEA134318F8027008BF7C
:10B130004FF0FF34222B00F2A780DFE803F0122249
:10B1400028432B3243A5A5A5A54672A5A5A5A5A56F
:10B15000A5A5A5A575808386A5A5A5899194979A8F
:10B160009D00C5F80C45601C18D003A80394FFF798
:10B17000AFFF039B012606FA03F3C0F80835B34678
:10B180002CE0C5F81445631C08D00026F7E7C5F885
:10B190000845E8E7621CC5F8084570D10AF1040AC1
:10B1A000B1E7631CC5F80C45F8D0012603A8039449
:10B1B000FFF78EFF039B4FF0010B0BFA03F3C0F870
:10B1C0000C350BE0C5F81045DDE7C5F80845002F44
:10B1D000D9D1671CE2D00026B3460627DAF8003042
:10B1E000019303F40052002A03A81CBF4FF0000B88
:10B1F00001260394FFF76CFF039A019B00EB82008A
:10B20000C3F3C114D0F800273B0243EA840343EAA6
:10B210000B0302EA0902134343EA4603C0F800376E
:10B22000BCE7C5F80C45D2E7C5F86045661CDAF8FE
:10B230000030B3D0C3F38033002BB6D095E7C5F808
:10B240006445F3E7C5F86845F0E7C5F86C45EDE7F8
:10B25000C5F82445621CA1D04FF0000B0126BDE7C4
:10B26000C5F828457FE7C5F83045F3E7C5F834450C
:10B27000F0E7C5F83845EDE7C5F83C45EAE70026B4
:10B2800094E76FF0150041E76FF085003EE700BFDF
:10B29000C2FF0200F0F8FCFF38B570B1074C084A55
:10B2A0004FF400450021E0FB054100232046FBF759
:10B2B00027FFBDE8384001F085BF38BD3F420F0091
:10B2C00040420F002DE9F7430646002201210220EB
:10B2D000FDF74AFD0220FDF717FD776835693C68E8
:10B2E0004FF00008C4F800852E60D7F80C9001AA32
:10B2F0004146484603F08AFC002839DB019BD9F817
:10B30000002019791868FFF7F3FE002830DB6B7A0C
:10B31000D6F810C0012B03D0032B27D14FF0100813
:10B32000AB7A032B22D1E97A09B101291ED12A7AFD
:10B3300012B1022A1AD10E226B687068B3F5164F4B
:10B34000006800F0B28034D8B3F5165F00F0B0802A
:10B350001AD8B3F5966F00F0AD800CD8B3F5967F90
:10B3600000F0AB80B3F5167F00F0AA806FF0850087
:10B3700003B0BDE8F083B3F5166F00F0A480B3F519
:10B38000965FF3D15C4B43E0B3F5E14F00F09E8054
:10B3900008D8B3F5615F00F09B80B3F5964FE5D117
:10B3A000564B35E047F6122E7345DFD14FF40003BC
:10B3B0002EE0B3F5613F00F08D8015D8B3F5963FD0
:10B3C00000F08B800AD84DF6C02E734500F08780C0
:10B3D000B3F5614FCAD14FF46B0319E0B3F5E13F08
:10B3E000C4D14FF0EB7313E0B3F5612F7AD009D8D5
:10B3F000DFF80CE1734578D0B3F5E12FB6D14FF00B
:10B40000E86305E0DFF8FCE07345AFD14FF080530F
:10B41000C0F82435736841EA08011B680A43C3F881
:10B420006C25D5E901010CF1040383E803007B6876
:10B43000990712D505F11C0001F0B4F9324B98427E
:10B4400056D1287F04F10C0204F5907103F098FEA8
:10B450002B7F0120984000F003FC0823C4F800353E
:10B460003B7A53B9C4F81031D4F81031AB69C4F841
:10B4700034350123C4F8383523607B689A075CBFF4
:10B480004FF48073C4F804337B68DB0644BF4FF489
:10B490008003C4F804336B69C4F8443500200123E9
:10B4A000C4F84805A360E36062E74FF41D03AFE70B
:10B4B000164BADE74FF49E23AAE74FF4A033A7E75E
:10B4C0004FF41C33A4E74FF41D23A1E7104B9FE773
:10B4D000104B9DE74FF06C739AE70F4B98E74FF4D2
:10B4E000650395E74FF0706392E74FF080638FE755
:10B4F0006FF004003CE700BF00B0130000A04E0056
:10B5000090D0030040420F000000AD0B0050270018
:10B5100000C0750000F03A0000903A01F8B504460A
:10B5200007690D4603F035FFB0B9214B1B789BB17D
:10B530006426606803F069FD00BB012003F01EFE75
:10B54000013EF6D10021212001F03CFEF0E781F31D
:10B550001188BFF36F8FF5E74FF02003EFF31181F0
:10B5600083F31288BFF36F8F60680E4603F04DFDC2
:10B5700090B981F31188BFF36F8FEDE74FF020038F
:10B58000EFF3118183F31288BFF36F8F60680E466B
:10B5900003F03BFD0028DAD07B691D707969012238
:10B5A000204603F072FC86F31188BFF36F8FF8BD5D
:10B5B000D813002070B5012383400E4ABFF35B8F80
:10B5C000DC4352E8001F01EA040542E80056002E61
:10B5D000F7D1BFF35B8F4FF4803282400648C0F84A
:10B5E0000823BFF35F8FBFF36F8F0B4214BF01209F
:10B5F000002070BD441300200010014070B40E49BB
:10B60000D1E90034D01AC31844F1000422F07F4677
:10B61000C1E90034A6F50013B3F5400F09D2074B7A
:10B620001B681A0A1B069C19054B42F10005C3E969
:10B63000004570BC02F088B958040020481300206F
:10B640006004002011B3BFF35B8F0123104A8340D5
:10B6500052E800CF4CEA030C42E800C10029F7D1C0
:10B66000BFF35B8F0B4A4FF480338340C2F804333F
:10B67000094BBFF35B8F1B68BFF35B8FC340DB07D6
:10B6800042BF064B4FF40032C3F80021704700BFA1
:10B6900044130020001001404013002000E100E0AE
:10B6A0000D4B1868010A0006BFF35F8F0B4BD3F8F0
:10B6B0000435181841F10001B3F5801F0AD2084B78
:10B6C000D3E90023904271EB030303D210F18070A1
:10B6D00041F10001704700BF4813002000100140F5
:10B6E000600400202DE9F04F85B016461F469DF8F6
:10B6F00040A00446FFF75EFF0190FFF7D1FFB04284
:10B7000071EB070354D23E4B301A67EB01019842AC
:10B7100071F100014FD23B4B03EB0413D3E9022339
:10B720009F4208BF96425ED037494FF4803804F1FB
:10B73000500508FA04F8AD00C1F848832046ADB2C0
:10B7400003F00FFD26F07F4B05F1804504F5A8734B
:10B7500005F58835DC464FF003090293029A2CF078
:10B760007F4341F82230C1F84483D1F80435274A99
:10B770006FF00200C01A604420F07F40904232D93E
:10B78000286868B1D1F804350393A3EB0B0020F0CF
:10B790007F40B0F5000F26D9204603F0E2FC039B62
:10B7A000BAF1000F07D109EB030C09F10109D5E744
:10B7B000BAF1000F09D06FF0150520460199FFF787
:10B7C00041FF284605B0BDE8F08F0123104ABFF3C2
:10B7D0005B8FA34052E8000F184342E800010029A4
:10B7E000F8D1BFF35B8F07490E98230101EB0412D8
:10B7F000C8500F9B5360C2E902670025DDE700BF18
:10B80000010080004804002000100140FDFF7F007F
:10B81000401300207FB51C4C1C4BC4F80833C4F8FF
:10B8200048331B4B00254FF0FF304FF0FF31C4F879
:10B830000855C3E902014FF48033C4F80433154BB3
:10B8400002264FF400320121C4F804631120C3F82A
:10B8500080212A46FDF788FA1120FDF755FA0E4A95
:10B860000123A360236013600C4B0D4A0093CDE9C4
:10B87000015500232846FFF735FF3046FFF7F2F960
:10B88000284604B070BD00BF0010014003000F0047
:10B890004804002000E100E044130020FDB5020050
:10B8A000FFFF7F002DE9F7432F4CD4F804339907AD
:10B8B0000BD5D4F8043143B12C4A0023C4F8043129
:10B8C000D4F80431136801331360D4F80433DA0375
:10B8D0002AD5BFF35B8F264B53E8002F22F00101DE
:10B8E00043E800100028F7D1BFF35B8FD30702D4E1
:10B8F000D4F84031C3B10025C4F84051D4F84031E8
:10B90000FFF7CEFE4FF02003EFF3118283F312888E
:10B91000BFF36F8F174BD3E90267B042B94106D22C
:10B9200082F31188BFF36F8F03B0BDE8F0834FF04F
:10B93000FF384FF0FF39C3E90289D3E900101D60D9
:10B940004FF48033C4F84833C4F84051D4F8403140
:10B9500082F31188BFF36F8F0029E5D00090324643
:10B960003B4628468847DFE7001001404813002087
:10B97000401300204804002030B5431C124C85B011
:10B9800005D08442A8BF0446012CB8BF0124FFF7AC
:10B9900087FE0E4B0C4DD3E90013401AB0F5000F93
:10B9A00010D22218AA4228BF2A4652184FF000008F
:10B9B00007490091CDE9010043F10003FFF792FE32
:10B9C00005B030BD2A46F0E7FFFF7F005804002095
:10B9D000FDB5020008B5FFF763FE024B1B68C01AF5
:10B9E00008BD00BF580400204FF08053D3F8302129
:10B9F000082A06D1D3F83431052B02D8024AD05C8C
:10BA000070470020704700BFEDFF0200024AD2F8E5
:10BA10000034002BFBD0704700E0014010B54FF020
:10BA20008053D3F83021082A4ED14FF080420021B4
:10BA3000C2F80C11C2F81011C2F8381502F54042D4
:10BA4000D3F80414C2F82015D3F80814C2F824154A
:10BA5000D3F80C14C2F82815D3F81014C2F82C151A
:10BA6000D3F81414C2F83015D3F81814C2F83415EA
:10BA7000D3F81C14C2F84015D3F82014C2F84415AA
:10BA8000D3F82414C2F84815D3F82814C2F84C157A
:10BA9000D3F82C14C2F85015D3F83014C2F854154A
:10BAA000D3F83414C2F86015D3F83814C2F864150A
:10BAB000D3F83C14C2F86815D3F84014C2F86C15DA
:10BAC000D3F84434C2F87035FFF78EFF18B13A4B03
:10BAD0003A4AC3F88C26FFF787FF18B1384BFB2290
:10BAE000C3F81825FFF780FF70B14FF080414FF089
:10BAF0008053D1F8E42ED3F8583222F00F0203F02D
:10BB00000F031343C1F8E43EFFF76EFF20B12D4B46
:10BB10004FF40072C3F840264FF08053D3F8303111
:10BB2000082B1AD14FF08043D3F80024D20744BF2A
:10BB30006FF00102C3F800244FF08053D3F8343182
:10BB4000052B02D8204AD35C3BB14FF01023D3F829
:10BB500008224FF08043C3F858254FF01023D3F844
:10BB60000022002A03DBD3F80432002B22DA174923
:10BB700001234FF01020C1F804351224FFF746FFCF
:10BB8000C0F80042FFF742FFC0F80442FFF73EFF53
:10BB90000023C1F80435FFF739FFBFF34F8F0C497D
:10BBA0000C4BCA6802F4E0621343CB60BFF34F8FC3
:10BBB00000BFFDE710BD00BF0050004048810300FA
:10BBC00000F0004000900240E7FF020000E001406A
:10BBD00000ED00E00400FA0530B50468CCB1BFF315
:10BBE0005B8FB4FA84F3C3F11F03DBB201229A40E6
:10BBF00024EA020250E8005FA54204D140E8002C8C
:10BC0000BCF1000FF6D1BFF35B8FE6D102480B7099
:10BC100030BD0248FCE700BF0000AD0B0200AD0BD9
:10BC200010B50368CB40DB0714D401238B400268B6
:10BC3000BFF35B8F43EA020150E8004F944204D106
:10BC400040E8001CBCF1000FF6D1BFF35B8FEED1D2
:10BC5000014810BD0148FCE70000AD0B0400AD0B2E
:10BC6000014BC3F80405704700F00140F7B50446E6
:10BC700018B1012823D003B0F0BD4FF08043022259
:10BC8000C3F808230122DA60C3F80401D3F80431B1
:10BC9000064601238DF8073042F210754FF08047B9
:10BCA000D4B1012CE7D1D7F80C3403F48033AEBB08
:10BCB00083B3012003F062FA013DF4D12AE04FF092
:10BCC00080430022C3F808035860C3F80021D3F86A
:10BCD00000310DF10706DCE7D7F8183403F48033A0
:10BCE0003EB9002BC7D0012003F048FA013DF3D143
:10BCF000C1E7D7F8182402F003023260002BBAD053
:10BD00009DF80700012803D103F038FA013DC7D19F
:10BD1000012CB0D1054B00225A71ACE7D7F80C24A6
:10BD200002F001023270002BEAD1F3E74C1300203D
:10BD3000044B1A7922B9012218609A800248704790
:10BD4000024870474C1300200000AD0B0C00AD0BF7
:10BD500008B5094B1B682BB10020FCF7F7FF08B9A9
:10BD6000FCF7D2FF4FF080430022C3F81825034BA5
:10BD700001221A7008BD00BF4C130020D61300200A
:10BD800010B510B1012843D010BD4FF08043D3F857
:10BD90001814D3F81824C80321D502F00303012B8B
:10BDA00004D013B10020FFF761FF00234FF0804261
:10BDB0000220C2F8183508224FF4827303F1804341
:10BDC0000021196002F180421C6801241460154AA8
:10BDD00012680AB34FF08043C3F80403D4E7D3F8E2
:10BDE0001424D107E1D5D3F81C249207DAD40D4AE4
:10BDF00012681AB10222C3F80423C5E7D3F804215C
:10BE0000002AFBD00022C3F80421D3F80431BBE799
:10BE100000224FF48073D1E71A68002AFCD0196021
:10BE20001B68B1E74C13002010B54FF08043D3F8E6
:10BE300000216AB10022C3F80021D3F800210122B9
:10BE4000C3F80823114B587910B95A711B689847E9
:10BE50004FF08043D3F8042172B10022C3F80421CB
:10BE6000D3F80421D3F81824D3F81824920704D166
:10BE70000122C3F818259A6010BD0222C3F80823D6
:10BE8000024BBDE810401B68012018474C130020EE
:10BE9000036803F01F025B09026004D0012B034812
:10BEA00018BF002070474FF0A040704700030050BB
:10BEB000034A430900F01F00D35C1844C0B2704726
:10BEC000F3FF020070B50546FFF7F2FF0C4C083097
:10BED0000E4634F81030DA0508D5C3F3432304EBDB
:10BEE000C302284654F8333052689847A3682BB1F0
:10BEF000E26831462846BDE87040184770BD00BF73
:10BF00005001002008B5FFF7D3FF034B083033F88A
:10BF10001000400B08BD00BF5001002008B5FFF71E
:10BF2000C7FF034B083033F81000C0F3400008BDD2
:10BF30005001002008B5FFF7BBFF034B083033F872
:10BF40001000C0F3401008BD50010020034611F05E
:10BF5000010010B5CCB20DD1A207C4F3400012D538
:10BF6000094AD2F820055860C2F82005003818BFE9
:10BF7000012008E04FF0A041D1F820251A60C1F857
:10BF80002025002AE8D010BD0003005010B5FFF7AF
:10BF90008FFF124A083032F81030D9051CD5C3F390
:10BFA000432123F4F85322F8103002F10E0400204C
:10BFB00034F8023F13F4807F03D0C3F34323994244
:10BFC0000AD001303028F3D1002342F83130044840
:10BFD000BDE81040FFF724BE10BD00BF5001002097
:10BFE000C8010020F0B5054600200446012607469A
:10BFF0008C420BD1114BD3F87C2132B10022C3F813
:10C000007C21D3F87C3140F00040F0BDE3B29B00CE
:10C0100003F580729B0806FA03F31D420BD002F170
:10C02000804202F5C042D2F800C0BCF1000F02D03D
:10C030001760126818430134DAE700BF006000405F
:10C04000F7B506460846FFF733FF194F00F108051C
:10C050000C4637F81530DB0727D5304603F0F4F8E7
:10C060002046FFF767FF40B12046FFF74BFF3168DE
:10C0700000F5A270002341F820302046FFF786FF2C
:10C08000002301A827F815300194FFF701FF019B59
:10C0900000EB8300074BD0F80027134043F0020366
:10C0A000C0F80037044803B0F0BD0448FBE700BF08
:10C0B00050010020F0F8FCFF0000AD0B0400AD0BB8
:10C0C0002DE9FF41164680460846FFF7F1FE0D4672
:10C0D0003168044609B32846FFF720FF18B1284607
:10C0E000FFF728FF10BB0023CDE900338DF80E3099
:10C0F0008DF80F300DF10F020B4628460DF10E01A1
:10C1000003F04AF8474A04F1080132F8113023F0ED
:10C11000020343F0010322F81130736863B3284629
:10C120001F785968FFF7FAFE10B1D1B13E4826E0FA
:10C130003C4A04F1080032F8103023F02003DB04FD
:10C14000DB0C22F8103061B1032FEFD87168496819
:10C1500091F800C0D8F80010A7B90CF5A27C41F8FE
:10C160002C70304A04F1080132F8113023F01C031E
:10C1700043EA870322F81130B3684BBB2B4804B065
:10C18000BDE8F08101EB8C0143EA4C33D1F810E5B6
:10C190002EF0030EC1F810E5D8F8001001EB8C0E5C
:10C1A00043F02003DEF8101522F8103021F44F314F
:10C1B00021F44071CEF810152902DEF8108501F443
:10C1C0007C5141EA074141EA0801CEF81015C8E761
:10C1D000D3E900672846FFF7D9FE002ECED0114DD7
:10C1E000D5E90023964203D19F4201D1002209E004
:10C1F0000F480DF10F01FFF7EFFC0C4B9842BED139
:10C200009DF80F2045F8326005EBC20308345F60EB
:10C2100035F8143043EA422343F4807325F8143090
:10C22000ACE700BF500100200400AD0B0000AD0BD7
:10C23000C80100202DE9F0430C4685B08046204619
:10C2400011461E46FFF734FE054629B32046FFF788
:10C2500065FE18B92046FFF76DFE18BB314F05F19A
:10C26000080937F8193013F01C0F02D04B78012B56
:10C2700018D001238DF80F300023CDE900134A1C9C
:10C280008B1C20460DF10F0102F086FF37F81930A4
:10C2900043F0030327F81930002E41D02046FFF762
:10C2A0003DFE18B9204805B0BDE8F08396F800C0FF
:10C2B000D8F800301B4F0CF5A272002143F8221071
:10C2C00005F1080237F8121021F02001C904C90C49
:10C2D00027F8121075781DB3D8F80000B67800EB77
:10C2E0008C002D04D0F8103523F4991323F4F8535F
:10C2F000C0F81035230203F47C5305F440353605AD
:10C30000D0F810E52B4306F4801641EA4C31334354
:10C3100041F0200143EA0E0327F81210C0F810354F
:10C320000248C0E7500100200400AD0B0000AD0B37
:10C33000014BC3E9021270475001002010B50846B6
:10C340001446FFF7F7FD50B10846FFF7B1FD054B66
:10C35000083033F8103004485B0B237010BD0348DD
:10C36000FCE700BF500100200000AD0B0400AD0B46
:10C3700070B5184E96F8804005464CBB21466022A9
:10C3800006F1100003F077FB2D68306F21468842DC
:10C3900012D10023C5F87C3145F30730D5F87C3144
:10C3A000FCF7B2FC4FF00043C5F804330A48012300
:10C3B00086F88030B36770BDCBB29B0003F5807206
:10C3C0007C2B08BFAC5001F1010108BFAB58DEE780
:10C3D0000248F0E7500100200000AD0B0C00AD0B4F
:10C3E000034B93F88000003818BF0120704700BF4E
:10C3F000500100200148FFF713BC00BFC40100201A
:10C400000148FFF7E9BB00BFC401002073B5054632
:10C4100008460C461646FFF78DFD00B30846FFF7A9
:10C420007DFD0146D8B92046FFF76CFD04B2A4009B
:10C4300004F5807203462868815029688258214497
:10C44000D1F8102542F00102C1F810252EB129685B
:10C45000012202FA03F3C1F8043302B070BD204692
:10C46000FFF726FD0F4B083033F81030C3F382037B
:10C47000042B12D0052B12D001A80194FFF708FD60
:10C48000019AD0F81035D34003F00103991C2046DF
:10C4900002B0BDE8704002F0C8BE0321F7E70221F8
:10C4A000F5E700BF500100202DE9F04F694BDFF8A0
:10C4B000A881D3F80403D8F87010C0B289B040F056
:10C4C0000040FFF78FFD051E2FDAC24600235AF801
:10C4D0007C1F06A8CDE90633FFF738FD5F4B0193BB
:10C4E0000DF118094FF0000B019A12F8013B01926F
:10C4F000DA0803F007031AF8022022FA03F3DA0736
:10C500001CD409F10409BBF1000F14D0D8F8701045
:10C510004FF00040FFF766FDD8F87C1006A8FFF743
:10C5200015FD0028DAD125F000450124002D79D130
:10C5300009B0BDE8F08F4FF0010BD5E7484B5B44E5
:10C540000293D9F800100029DBD0029B91FAA1F1E7
:10C550001C78B1FA81F141EA44142046FFF7A8FCA7
:10C560000830059438F81070C808BB0819F8002086
:10C57000039301F00701012303FA01F122EA01020A
:10C5800009F8002005A8FFF783FC059A039B02F534
:10C59000E072C7F3820650F822205B073746C2F3E9
:10C5A000014224D520463946D6B2FFF78BFC05A8B8
:10C5B0000594FFF76DFC059B03F5E07350F82330FD
:10C5C000C3F301439E4207D10021204602F02DFE15
:10C5D0003146204602F029FE05A80594FFF758FCD5
:10C5E000059B012202FA03F3C0F82035A9E7022ACD
:10C5F0000CD10321204602F018FE06F00503012BA2
:10C60000EAD139462046FFF75DFCE5E702212046E6
:10C61000039202F00AFE032EF3D0039A032ADBD121
:10C62000022EEDE795FAA5F3B3FA83F304FA03F2C9
:10C630009B0003F1804303F5C04325EA0205D3F8CC
:10C640001005D3F81015C0F30520C1F30141FFF721
:10C6500039FC6BE70060004050010020030003003C
:10C660000300030010B5184C237853BB0278C2F3C3
:10C670004003920712D54FF08053D3F83021082A97
:10C680000BD1D3F83431052B07D8104AD35C23B132
:10C690004FF080430122C3F8382601234FF0804237
:10C6A000C2F88035037803F00103C2F87835002022
:10C6B000FCF74CFB08B9FCF727FB01230448237067
:10C6C00010BD0448FCE700BFD7130020050003009D
:10C6D0000000AD0B0C00AD0B4FF080434FF46072C7
:10C6E000C3F80823014B00221A607047541300203E
:10C6F00008B5FFF7F1FF03680BB1014A136008BDED
:10C700005413002010B54FF08043D3F80443620760
:10C7100007D54FF4847002F0BFFD10B11E4B1B68AB
:10C720009847A30608D54FF48A7002F0B5FD18B1FA
:10C730001A4B00201B689847600608D54FF48C7090
:10C7400002F0AAFD18B1154B01201B68984721067D
:10C7500008D54FF48E7002F09FFD18B1104B0020E9
:10C760001B689847E20508D54FF4907002F094FDDD
:10C7700018B10B4B01201B689847A3050AD54FF44D
:10C78000927002F089FD28B1054BBDE810401B688E
:10C790000220184710BD00BF5C1300205813002072
:10C7A0005413002001460148FFF716BAD4010020B7
:10C7B00038B54FF02003EFF3118583F31288BFF3F0
:10C7C0006F8F064B9C6802F0A1FD85F31188BFF3C3
:10C7D0006F8F2046BDE83840FCF726BA641300206E
:10C7E000104B70B553F82040013053F82060A6423A
:10C7F00000D870BDD4E9003595B153B128469847AB
:10C8000038B10028B8BF4042EB68FF28A8BFFF201E
:10C810001870EA68537843F0010353700834E6E770
:10C820009847FBE718FF020008B50A4B01220320D6
:10C830001A70FFF7D5FF01F02BF90420FFF7D0FFA6
:10C8400000F080F9FAF7CEFD034A137B23F00103D1
:10C85000137308BDD8130020E804002008B503486E
:10C86000034A0021121A02F054FD08BD08030020FB
:10C87000DC13002070B5002386B00122CDE904232B
:10C88000194E1A4D01930F22CDE902321849142393
:10C8900003FB005506EBC01604464FF4C070154B61
:10C8A00000954FF4A07200FB0411304600F0D6F85A
:10C8B000737B114AEE6023F0040373734FF4046337
:10C8C00004FB033313446B600C4B2C74BFF35B8F7E
:10C8D00053E8001F013143E80012002AF8D1BFF3EA
:10C8E0005B8F06B070BD00BF680400206413002099
:10C8F000C0240020E3F50200801C0020601300200B
:10C9000080B50020A6B0FFF76BFF2D4B83F308889E
:10C910002C4D2D4E6B692D4F43F400736B61002439
:10C92000E02385F82230EC772C766C76AC7685F8AF
:10C9300020406B6A43F4E0236B6285F82340FCF7E8
:10C9400049F9FCF79BFA4FF0FF33AB62EB62FCF75F
:10C9500077FBFCF7D3FA40F20113ADF8243006ABB5
:10C96000B360CDE91E44219402F0BBFC0120FFF727
:10C9700037FF0220164DFFF733FF00F099FB154BF0
:10C9800075610593012314490094CDE903434FF4E5
:10C9900080623B46CDE90144284600F05FF86A7B9F
:10C9A000064622F0040228466A7302F037FD20464C
:10C9B000FFF760FF3A4631462846FCF743FA00BFCE
:10C9C000C024002000ED00E06413002029C802000C
:10C9D000E80400200B0003004026002038B5064C78
:10C9E000064D0020AC4200D338BD204602F095FC35
:10C9F0000028F9DB1C34F5E7EC01002008020020D8
:10CA000073B50C464FF02005EFF3118185F31288C2
:10CA1000BFF36F8FC5685DB125602B68C360836904
:10CA200001338361002081F31188BFF36F8F11E020
:10CA300052EA030603D125606FF00B00F3E7CDE95E
:10CA400000230246083000F05BFA18B9024B9B68DD
:10CA50005B69236002B070BD641300202DE9F043D0
:10CA600085B00F460732109901739846042100F1F2
:10CA7000580322F00706C0E91633417300230F99CB
:10CA8000836016F14005C0E9063304468173C37321
:10CA900007F1400905D3404080F311884FF00400AE
:10CAA00002DF3D4429462046FBF714FF07300E9B6A
:10CAB00020F00700A066C4E9189602930D9B01932D
:10CAC0002D1A0C9B00932A46434639462046FCF714
:10CAD00087F900236365044B9B6803B1DB6EE36653
